:100000000C94F3000C940C010C940C010C940C0156
:100010000C940C010C940C010C940C010C940C012C
:100020000C940C010C940C010C940C010C940C011C
:100030000C940C010C940C010C940C010C940C010C
:100040000C940C010C940C010C940C010C940C01FC
:100050000C940C010C940C010C940C010C940C01EC
:100060000C940C010C940C010C940C010C940C01DC
:100070000C940C010C940C010C940C010C940C01CC
:100080000C940C010C940C010C940C010C940C01BC
:100090000C940C010C940C010C940C010C940C01AC
:1000A0000C940C010C940C010C940C010C940C019C
:1000B0000C940C010C940C010C940C010C940C018C
:1000C0000C940C010C940C010C940C010C940C017C
:1000D0000C940C010C940C010C940C010C940C016C
:1000E0000C940C016E616E00696E660000407A101F
:1000F000F35A00A0724E18090010A5D4E80000E8D9
:100100007648170000E40B54020000CA9A3B000036
:1001100000E1F505000080969800000040420F00C5
:100120000000A08601000000102700000000E80386
:10013000000000006400000000000A000000000051
:100140000100000000002C76D888DC674F0823DF10
:10015000C1DFAE59E1B1B796E5E3E453C63AE651E3
:10016000997696E8E6C28426EB898C9B62ED407C0A
:100170006FFCEFBC9C9F40F2BAA56FA5F490055AA6
:100180002AF75C936B6CF9676DC11BFCE0E40D47CB
:10019000FEF520E6B500D0ED902E030094357705EE
:1001A0000080841E080000204E0A000000C80C33A6
:1001B0003333330F986E12831141EF8D2114893B35
:1001C000E65516CFFEE6DB18D1844B381BF77C1DB5
:1001D000901DA4BBE424203284725E228100C9F108
:1001E00024ECA1E53D2711241FBECFEFD1E2DEBFF5
:1001F000CDBF00E00CBF12E0A0E0B2E0ECEAF3E11A
:1002000000E00BBF02C007900D92AA3AB107D9F7E0
:100210000E94D2010C94D4090C9400009C0121503E
:1002200031092D31310588F4873091058CF08A3001
:1002300091058CF08F3091058CF0843191058CF014
:10024000499794F081E090E0089590E080E008956F
:1002500086E090E0089585E090E0089584E090E0E5
:10026000089583E090E0089582E090E008959C0175
:100270000197CB9710F591E02E3131050CF090E00D
:100280002931310524F42431310534F0926082B1F2
:10029000807C982B92B908952F30310514F0966028
:1002A000F6CF2A30310514F09E60F1CF27303105AA
:1002B00014F09E61ECCF9E63EACF90E0E8CF249AE1
:1002C000259881B18F6381B908958093BB0084E83C
:1002D0008093BC008091BC0087FFFCCF0895CF9332
:1002E000DF93C0910002C62BD82FD07FDC2B20E1FA
:1002F000829FC0011124C82B84EA8093BC008091A6
:10030000BC0087FFFCCF8EE40E9465018D2F8460C6
:100310000E9465018D2F0E9465018C2F84600E94D0
:1003200065018C2F0E94650184E98093BC00DF91F8
:10033000CF91089560E0882319F08CE00C946F0150
:1003400088E0FCCF882339F088E08093000260E0E9
:1003500080E00C946F0110920002F9CF0F931F936D
:10036000CF93DF938C0180EC611101C080E860E0E5
:100370000E946F01E8018991811105C0DF91CF9141
:100380001F910F91089561E00E946F01F4CF60E02A
:1003900081E00E946F018FE39FE10197F1F700C0B8
:1003A00000000895CF93DF93CDB7DEB7E2970FB685
:1003B000F894DEBF0FBECDBF1092C50087E68093D4
:1003C000C40088E18093C10086E08093C2000E944F
:1003D0005F011092B90088E48093B80084E08093B4
:1003E000BC002FEF30E742E0215030404040E1F7C1
:1003F00000C0000060E083E00E946F018FE19EE496
:100400000197F1F700C0000060E083E00E946F01F7
:1004100087E592E00197F1F700C0000060E083E01B
:100420000E946F0160E082E00E946F0160E088E25C
:100430000E946F0160E086E00E946F0160E08CE046
:100440000E946F010E94C70110E000E081E9E82EE0
:1004500082E0F82E9E012F5F3F4F69019FE3992EA6
:100460002AE2822E35E1332E43E0242E8091C00013
:1004700087FF47C08091C6008535E9F4013011053A
:1004800009F03FC00E94C70160E081E092E00E9455
:10049000AE0161E080E192E00E94AE0192B83FEFD0
:1004A0004BE782E9315040408040E1F700C0000056
:1004B00002E010E0DBCF863409F09DC00E94C70146
:1004C00060E08DE192E00E94AE0161E08CE292E09A
:1004D0000E94AE0122B89FEF27EA31E691502040FA
:1004E0003040E1F700C0000092B80E94C70160E010
:1004F00089E392E00E94AE0161E087E492E00E940D
:10050000AE012C984AE04A95F1F700C02C9A85E399
:100510008A95F1F700002C981D9BFECF60E070E0FB
:10052000CB011D9B0EC06F5F7F4F8F4F9F4F25E00C
:100530002A95F1F70000613335E7730781059105CE
:1005400081F70E94A90826E933E44BE85CE30E94A6
:100550000F090E9473082B01CB010E943701C201D1
:100560000197069708F09BC001151105F9F481E089
:1005700090E00E94A20181E090E00E949A010E9416
:10058000C70160E089E392E00E94AE014FEF89E687
:1005900098E1415080409040E1F700C0000061E0E8
:1005A00087E492E00E94AE0101E010E0C2010E94E7
:1005B0000E01B82EA92EC2010E9437015F924F9200
:1005C000AF92BF92FF92EF92DF92CF920E94A40966
:1005D000F6010FB6F894DEBF0FBECDBF8191811139
:1005E00075C09FEF23EC39E0915020403040E1F797
:1005F00000C000003BCF803509F083CF0E94C701C7
:1006000060E087E592E00E94AE0161E085E692E05D
:100610000E94AE018AE090E092B84FEF21EE34E004
:10062000415020403040E1F700C0000012B84FEFC9
:1006300021EE34E0415020403040E1F700C000009E
:10064000019751F70E94C70160E082E792E00E94A3
:10065000AE0161E081E892E00E94AE018AE090E0A4
:1006600082B84FEF24E33CE0415020403040E1F7B6
:1006700000C0000032B84FEF24E33CE0415020407E
:100680003040E1F700C00000019751F70E94C70118
:1006900090E080E00E94A20110E000E032CF20E173
:1006A000421651040CF482CF0115110509F47ECFD6
:1006B0000E94C70190E080E00E94A20190E080E0EB
:1006C0000E949A0112B810E000E070CF9091C00033
:1006D00095FFFCCF8093C60081CF2F923F924F921F
:1006E0005F926F927F928F929F92AF92BF92CF92C2
:1006F000DF92EF92FF920F931F93CF93DF93CDB7CB
:10070000DEB72F970FB6F894DEBF0FBECDBF6C01DA
:100710001B015A01FC011782168283819E012F5F03
:100720003F4F490181FDD2C08FEF9FEFEEC2F12C08
:10073000512C00E0003238F48B3209F190F4803211
:10074000F9F0833209F107FD34C020ED280F2A307B
:1007500020F506FF1BC0FAE0FF9E200D1124F22EAB
:1007600005C08D3279F0803371F70160F10193FD9E
:10077000859193FF81911F018111DCCF1AC0026026
:100780000460F4CF0860F2CF0061F0CF3AE0539EEE
:10079000200D1124522E0062E9CF8E3221F406FD85
:1007A000B1C20064E3CF8C3611F40068DFCF883625
:1007B000E9F29BEB980F933008F05FC00061805E18
:1007C00006FD02C046E0F42E102F1F73853609F097
:1007D0005BC0106417FF61C08F2D9BE39F1508F469
:1007E0008BE344244394480E27E03501F4E06F0E78
:1007F000711CF5016081718182819381042DA401B6
:100800000E94F7065C01F981FC87F0FF03C00DE24E
:10081000F3FF07C00BE211FD04C0012F047012FDAD
:1008200000E22C852C70E22E09F46BC00111D8C2B5
:10083000F3E0E12CF515A0F483E0E52CE81A13FDB4
:1008400008C0B60180E290E00E94E507EA94E1105A
:10085000F8CF002329F0B601802F90E00E94E50731
:100860003C8524EEA22E20E0B22E33FD04C098EE8B
:10087000A92E90E0B92E107122C09BE9980F9330F9
:1008800008F047C10F7E9CCF863611F41068A2CFC6
:10089000FF2009F49FCFFA949DCFE7E02F2DEF15AD
:1008A00018F427E037E0F32E412C9FCF111180522E
:1008B000B60190E00E94E5078FEFA81AB80AF5018B
:1008C00084918111F3CFE11084C25301F601938129
:1008D000F10193FD859193FF81911F01882309F414
:1008E00011C2853241F493FD859193FF81911F01DF
:1008F000853209F01CCFB60190E00E94E507350172
:10090000E4CF17FF6FC04A0CFC85F4FF04C08A8156
:10091000813309F44A9414140CF086C028E024159D
:1009200010F488E0482E85E090E017FF06C0C5016E
:10093000B7FE02C090E080E0019601110196FF2011
:1009400031F02F2D30E02F5F3F4F820F931F58164D
:10095000190619F014F0E52CE81A812F897011F4AA
:10096000E11067C0002329F0B601802F90E00E94BB
:10097000E50713FD02C0E11063C017FF7CC08501CD
:10098000B7FE02C010E000E0C501841991092C01F6
:100990006F2D70E0EE27FF27E61BF70BFF87EE8732
:1009A0000F3F100729F4B6018EE290E00E94E507A0
:1009B000A016B1060CF44BC0401651060CF047C00F
:1009C000F501E01BF10BE80DF91D818101501109C2
:1009D0002E853F8502171307E4F1B60190E00E94CF
:1009E000E507DECF16FD9FCFEF2DF0E0EA15FB0502
:1009F00034F03CEFA3163FEFB3060CF010683296CC
:100A0000E80DF91D01C0FA94FF2019F0829180339E
:100A1000D1F317FF88CF442443944F0CFA141B04DE
:100A200031F02CF0FA187FCF442443947CCFF12C82
:100A30007ACFB60180E290E00E94E507EA9490CF79
:100A4000B60180E390E00E94E507EA9494CF80E34A
:100A5000BDCFA016B10641F49A81963350F4953378
:100A600019F43C8534FF05C0B60190E00E94E5070B
:100A70002ACF81E3F9CF8A81813319F09C859F7E4B
:100A80009C87B60190E00E94E507FF20A9F0B6011F
:100A90008EE290E00E94E507F394F394E2E001E037
:100AA0000E0FE80DF92DF11D8081B60190E00E9436
:100AB000E507E02F0F11F3CF85E690E014FF02C0A9
:100AC00085E490E0B6010E94E507B7FC06C0A114DA
:100AD000B104C1F4EC85E4FF15C0B194A194B10850
:100AE0008DE2B60190E00E94E50780E32AE0A216BD
:100AF000B10454F4B60190E00E94E507B601C501C7
:100B0000C096B4CF8BE2EDCF8F5FFAE0AF1AB10899
:100B1000EDCF8336C9F0833771F1833509F05BC0BF
:100B20003501F2E06F0E711CF501A080B1806F2DD0
:100B300070E006FD02C06FEF7FEFC5010E94CF0796
:100B40009D878C8700680DC0350132E0630E711CF3
:100B5000F5018081898321E030E03D872C875401B5
:100B60000F7703FD06C02C853D855216130609F04C
:100B7000A8F4E52C2BC0350132E0630E711CF501A1
:100B8000A080B1806F2D70E006FD02C06FEF7FEF97
:100B9000C5010E94DA079D878C87E2CFB60180E20B
:100BA00090E00E94E5075A94DECFF50107FD85919C
:100BB00007FF81915F01B60190E00E94E507E11017
:100BC000EA948C859D8501979D878C87EC85FD85B2
:100BD000EF2B59F778CE843619F0893609F074C0B6
:100BE000350107FF66C0F4E06F0E711CF5016081EE
:100BF000718182819381102F1F7697FF08C0909595
:100C00008095709561957F4F8F4F9F4F10682AE0B8
:100C100030E0A4010E941508A82EA818BA2C012FB4
:100C200016FF0AC00E7FAF1438F414FF04C012FD83
:100C300002C0012F0E7EBF2C04FFA3C0FE01EA0DEF
:100C4000F11D8081803309F095C0097EF02FF87086
:100C5000EF2E03FDA5C000FF9FC0FA2CB51410F4C1
:100C6000F50CFB1804FFA2C0B60180E390E00E94DF
:100C7000E50702FF09C088E790E001FF02C088E5B0
:100C800090E0B6010E94E507AF1408F49BC0AA9457
:100C90000A2D10E00F5F1F4F080D191DF8018291FA
:100CA0008F01B60190E00E94E50780169106B1F72A
:100CB0000ACEF2E06F0E711CF50160817181072E82
:100CC000000C880B990B97CF102F8537A9F41F7E46
:100CD0002AE030E0350117FF44C0F4E06F0E711CCC
:100CE000F5016081718182819381A4010E941508C0
:100CF000A82EA8181F7792CF197F8F3679F1F0F4BC
:100D0000883539F1F601868197812F960FB6F894D0
:100D1000DEBF0FBECDBFDF91CF911F910F91FF902E
:100D2000EF90DF90CF90BF90AF909F908F907F908B
:100D30006F905F904F903F902F900895803739F0DB
:100D4000883701F714FD146020E130E0C3CF106153
:100D5000F9CF04FD166020E132E0BCCF28E030E09E
:100D6000B9CFF2E06F0E711CF5016081718190E0E6
:100D700080E0BBCF02FD02C0B39468CFB394B394BC
:100D800065CF802F867809F461CFF6CFB60180E277
:100D900090E00E94E507B394B514C0F3E12C62CF54
:100DA000E52CEB18B51408F45DCFF8CF802F8678CA
:100DB00009F46ACF8BE201FF80E207FD8DE2B60104
:100DC00090E060CFB60180E390E00E94E507FA94DE
:100DD0005BCFB60180E290E00E94E507EA9473CD14
:100DE00024E0E12C251508F036CD84E026CD28300E
:100DF00008F027E03327DA01990F311D87FD916054
:100E000000966105710539F432602E5F3D9330E341
:100E10002A95E1F708959F3F30F08038710561050C
:100E200009F03C5F3C5F3D93913008F08068911D74
:100E3000DF93CF931F930F93FF92EF92192F987F19
:100E40009695E92F96959695E90FFF27EA5BFE4F59
:100E500099273327EE24FF24A701E7010590089482
:100E6000079428F4360FE71EF81E491F511D660F20
:100E7000771F881F991F0694A1F70590079428F4FF
:100E8000E70EF81E491F561FC11D770F881F991FB7
:100E9000661F0694A1F70590079428F4F80E491FE1
:100EA000561FC71FD11D880F991F661F771F0694F5
:100EB000A1F70590079420F4490F561FC71FD81FAC
:100EC000990F661F771F881F0694A9F784911095C4
:100ED000177041F0D695C79557954795F794E794C5
:100EE0001A95C1F7ECEEF0E06894159015913591E4
:100EF0006591959105907FE27395E118F10A430B96
:100F0000560BC90BD009C0F7E10CF11E431F561F49
:100F1000C91FD01D7EF4703311F48A95E6CFE89492
:100F2000015030F0080F0AF40027021708F4202FB0
:100F30002395022F7A3328F079E37D932A95E9F7F8
:100F400010C07D932A9589F60694979567953795F5
:100F500017951794E118F10A430B560BC90BD009EA
:100F600098F023957E9173957A3308F070E37C9323
:100F70002013B8F77E9170617D9330F0839571E313
:100F80007D9370E32A95E1F71124EF90FF900F9184
:100F90001F91CF91DF91992787FD90950895FC01CE
:100FA0000590615070400110D8F7809590958E0F94
:100FB0009F1F0895FC016150704001900110D8F707
:100FC000809590958E0F9F1F08950F931F93CF9339
:100FD000DF93182F092FEB018B8181FD09C01FEFD3
:100FE0000FEF812F902FDF91CF911F910F910895D7
:100FF00082FF14C02E813F818C819D812817390783
:101000003CF4E881F981CF010196998388831083AC
:101010008E819F8101969F838E83E3CFE885F9853A
:10102000812F1995892BA1F3DACFFA01AA2728304D
:1010300051F1203181F1E8946F936E7F6E5F7F4FA5
:101040008F4F9F4FAF4FB1E03ED0B4E03CD0670F21
:10105000781F891F9A1FA11D680F791F8A1F911D74
:10106000A11D6A0F711D811D911DA11D20D009F4C4
:1010700068943F912AE0269F11243019305D319306
:10108000DEF6CF010895462F4770405D4193B3E0EF
:101090000FD0C9F7F6CF462F4F70405D4A3318F096
:1010A000495D31FD4052419302D0A9F7EACFB4E047
:1010B000A6959795879577956795BA95C9F70097FF
:1010C0006105710508959B01AC010A2E06945795A0
:1010D000479537952795BA95C9F7620F731F841FF7
:1010E000951FA01D08950E947A086894B1110C9470
:1010F000090908950E94EE0888F09F5798F0B92FCB
:101100009927B751B0F0E1F0660F771F881F991F3C
:101110001AF0BA95C9F714C0B13091F00E940809CD
:10112000B1E008950C940809672F782F8827B85FDD
:1011300039F0B93FCCF3869577956795B395D9F794
:101140003EF490958095709561957F4F8F4F9F4F9E
:101150000895E89409C097FB3EF4909580957095AA
:1011600061957F4F8F4F9F4F9923A9F0F92F96E9F3
:10117000BB279395F695879577956795B795F11168
:10118000F8CFFAF4BB0F11F460FF1BC06F5F7F4F05
:101190008F4F9F4F16C0882311F096E911C0772317
:1011A00021F09EE8872F762F05C0662371F096E820
:1011B000862F70E060E02AF09A95660F771F881FEF
:1011C000DAF7880F9695879597F9089557FD905807
:1011D000440F551F59F05F3F71F04795880F97FBFB
:1011E000991F61F09F3F79F08795089512161306B5
:1011F0001406551FF2CF4695F1DF08C016161706E4
:101200001806991FF1CF8695710561050894089518
:10121000E894BB2766277727CB0197F908950E94AA
:1012200022090C9493090E94850938F00E948C09C8
:1012300020F0952311F00C947C090C948209112460
:101240000C9409090E94E60870F3959FC1F3950F6D
:1012500050E0551F629FF001729FBB27F00DB11D3A
:10126000639FAA27F00DB11DAA1F649F6627B00DCA
:10127000A11D661F829F2227B00DA11D621F739FB3
:10128000B00DA11D621F839FA00D611D221F749FC1
:101290003327A00D611D231F849F600D211D822F08
:1012A000762F6A2F11249F5750409AF0F1F088232F
:1012B0004AF0EE0FFF1FBB1F661F771F881F91505C
:1012C0005040A9F79E3F510580F00C947C090C9486
:1012D00009095F3FE4F3983ED4F3869577956795C7
:1012E000B795F795E7959F5FC1F7FE2B880F911D86
:1012F0009695879597F9089597F99F6780E870E02C
:1013000060E008959FEF80EC089500240A9416167B
:10131000170618060906089500240A9412161306E3
:10132000140605060895092E0394000C11F4882371
:1013300052F0BB0F40F4BF2B11F460FF04C06F5F8D
:101340007F4F8F4F9F4F08950F931F93CF93DF933E
:10135000CDB7DEB72E970FB6F894DEBF0FBECDBF68
:101360000E891F8986E08C831A8309838FEF9FE79C
:101370009E838D83AE01465E5F4F688D798DCE0171
:1013800001960E946D032F813885020F131FF8010B
:1013900010822E960FB6F894DEBF0FBECDBFDF9140
:0C13A000CF911F910F910895F894FFCF9A
:1013AC0008414343455353204752414E5445440052
:1013BC0057454C434F4D4520484F4D450057524FD4
:1013CC004E472050415353574F52440054525920CA
:1013DC00414741494E2E2E2E0053595354454D2012
:1013EC004F4E4C494E4500454E54455220504153AA
:1013FC0053574F52443A002121212050414E49432A
:10140C0020212121004558504C4F44494E472E2E47
:10141C002E0053797374656D204F46464C494E45EA
:10142C00005245434F564552494E472E2E2E2E2ED6
:10143C00007B226C656473223A25642C22646973E8
:0A144C0074223A25647D0D0A0000A9
:00000001FF
